{
  "contractName": "SmartContractDondi",
  "abi": [
    {
      "inputs": [
        {
          "internalType": "address",
          "name": "ownerAddress",
          "type": "address"
        }
      ],
      "payable": false,
      "stateMutability": "nonpayable",
      "type": "constructor"
    },
    {
      "anonymous": false,
      "inputs": [
        {
          "indexed": true,
          "internalType": "address",
          "name": "receiver",
          "type": "address"
        },
        {
          "indexed": true,
          "internalType": "address",
          "name": "from",
          "type": "address"
        },
        {
          "indexed": false,
          "internalType": "uint8",
          "name": "matrix",
          "type": "uint8"
        },
        {
          "indexed": false,
          "internalType": "uint8",
          "name": "level",
          "type": "uint8"
        }
      ],
      "name": "MissedEthReceive",
      "type": "event"
    },
    {
      "anonymous": false,
      "inputs": [
        {
          "indexed": true,
          "internalType": "address",
          "name": "user",
          "type": "address"
        },
        {
          "indexed": true,
          "internalType": "address",
          "name": "referrer",
          "type": "address"
        },
        {
          "indexed": false,
          "internalType": "uint8",
          "name": "matrix",
          "type": "uint8"
        },
        {
          "indexed": false,
          "internalType": "uint8",
          "name": "level",
          "type": "uint8"
        },
        {
          "indexed": false,
          "internalType": "uint8",
          "name": "place",
          "type": "uint8"
        }
      ],
      "name": "NewUserPlace",
      "type": "event"
    },
    {
      "anonymous": false,
      "inputs": [
        {
          "indexed": true,
          "internalType": "address",
          "name": "user",
          "type": "address"
        },
        {
          "indexed": true,
          "internalType": "address",
          "name": "referrer",
          "type": "address"
        },
        {
          "indexed": true,
          "internalType": "uint256",
          "name": "userId",
          "type": "uint256"
        },
        {
          "indexed": false,
          "internalType": "uint256",
          "name": "referrerId",
          "type": "uint256"
        }
      ],
      "name": "Registration",
      "type": "event"
    },
    {
      "anonymous": false,
      "inputs": [
        {
          "indexed": true,
          "internalType": "address",
          "name": "user",
          "type": "address"
        },
        {
          "indexed": true,
          "internalType": "address",
          "name": "currentReferrer",
          "type": "address"
        },
        {
          "indexed": true,
          "internalType": "address",
          "name": "caller",
          "type": "address"
        },
        {
          "indexed": false,
          "internalType": "uint8",
          "name": "matrix",
          "type": "uint8"
        },
        {
          "indexed": false,
          "internalType": "uint8",
          "name": "level",
          "type": "uint8"
        }
      ],
      "name": "Reinvest",
      "type": "event"
    },
    {
      "anonymous": false,
      "inputs": [
        {
          "indexed": true,
          "internalType": "address",
          "name": "from",
          "type": "address"
        },
        {
          "indexed": true,
          "internalType": "address",
          "name": "receiver",
          "type": "address"
        },
        {
          "indexed": false,
          "internalType": "uint8",
          "name": "matrix",
          "type": "uint8"
        },
        {
          "indexed": false,
          "internalType": "uint8",
          "name": "level",
          "type": "uint8"
        }
      ],
      "name": "SentExtraEthDividends",
      "type": "event"
    },
    {
      "anonymous": false,
      "inputs": [
        {
          "indexed": true,
          "internalType": "address",
          "name": "user",
          "type": "address"
        },
        {
          "indexed": true,
          "internalType": "address",
          "name": "referrer",
          "type": "address"
        },
        {
          "indexed": false,
          "internalType": "uint8",
          "name": "matrix",
          "type": "uint8"
        },
        {
          "indexed": false,
          "internalType": "uint8",
          "name": "level",
          "type": "uint8"
        }
      ],
      "name": "Upgrade",
      "type": "event"
    },
    {
      "payable": true,
      "stateMutability": "payable",
      "type": "fallback"
    },
    {
      "constant": true,
      "inputs": [],
      "name": "LAST_LEVEL",
      "outputs": [
        {
          "internalType": "uint8",
          "name": "",
          "type": "uint8"
        }
      ],
      "payable": false,
      "stateMutability": "view",
      "type": "function"
    },
    {
      "constant": true,
      "inputs": [
        {
          "internalType": "address",
          "name": "",
          "type": "address"
        }
      ],
      "name": "balances",
      "outputs": [
        {
          "internalType": "uint256",
          "name": "",
          "type": "uint256"
        }
      ],
      "payable": false,
      "stateMutability": "view",
      "type": "function"
    },
    {
      "constant": true,
      "inputs": [
        {
          "internalType": "uint256",
          "name": "",
          "type": "uint256"
        }
      ],
      "name": "idToAddress",
      "outputs": [
        {
          "internalType": "address",
          "name": "",
          "type": "address"
        }
      ],
      "payable": false,
      "stateMutability": "view",
      "type": "function"
    },
    {
      "constant": true,
      "inputs": [],
      "name": "lastUserId",
      "outputs": [
        {
          "internalType": "uint256",
          "name": "",
          "type": "uint256"
        }
      ],
      "payable": false,
      "stateMutability": "view",
      "type": "function"
    },
    {
      "constant": true,
      "inputs": [
        {
          "internalType": "uint8",
          "name": "",
          "type": "uint8"
        }
      ],
      "name": "levelPrice",
      "outputs": [
        {
          "internalType": "uint256",
          "name": "",
          "type": "uint256"
        }
      ],
      "payable": false,
      "stateMutability": "view",
      "type": "function"
    },
    {
      "constant": true,
      "inputs": [],
      "name": "owner",
      "outputs": [
        {
          "internalType": "address",
          "name": "",
          "type": "address"
        }
      ],
      "payable": false,
      "stateMutability": "view",
      "type": "function"
    },
    {
      "constant": true,
      "inputs": [
        {
          "internalType": "uint256",
          "name": "",
          "type": "uint256"
        }
      ],
      "name": "userIds",
      "outputs": [
        {
          "internalType": "address",
          "name": "",
          "type": "address"
        }
      ],
      "payable": false,
      "stateMutability": "view",
      "type": "function"
    },
    {
      "constant": true,
      "inputs": [
        {
          "internalType": "address",
          "name": "",
          "type": "address"
        }
      ],
      "name": "users",
      "outputs": [
        {
          "internalType": "uint256",
          "name": "id",
          "type": "uint256"
        },
        {
          "internalType": "address",
          "name": "referrer",
          "type": "address"
        },
        {
          "internalType": "uint256",
          "name": "partnersCount",
          "type": "uint256"
        }
      ],
      "payable": false,
      "stateMutability": "view",
      "type": "function"
    },
    {
      "constant": false,
      "inputs": [
        {
          "internalType": "address",
          "name": "referrerAddress",
          "type": "address"
        }
      ],
      "name": "registrationExt",
      "outputs": [],
      "payable": true,
      "stateMutability": "payable",
      "type": "function"
    },
    {
      "constant": false,
      "inputs": [
        {
          "internalType": "uint8",
          "name": "matrix",
          "type": "uint8"
        },
        {
          "internalType": "uint8",
          "name": "level",
          "type": "uint8"
        }
      ],
      "name": "buyNewLevel",
      "outputs": [],
      "payable": true,
      "stateMutability": "payable",
      "type": "function"
    },
    {
      "constant": true,
      "inputs": [
        {
          "internalType": "address",
          "name": "user",
          "type": "address"
        }
      ],
      "name": "isUserExists",
      "outputs": [
        {
          "internalType": "bool",
          "name": "",
          "type": "bool"
        }
      ],
      "payable": false,
      "stateMutability": "view",
      "type": "function"
    },
    {
      "constant": true,
      "inputs": [
        {
          "internalType": "address",
          "name": "userAddress",
          "type": "address"
        },
        {
          "internalType": "uint8",
          "name": "level",
          "type": "uint8"
        }
      ],
      "name": "usersX3Matrix",
      "outputs": [
        {
          "internalType": "address",
          "name": "",
          "type": "address"
        },
        {
          "internalType": "address[]",
          "name": "",
          "type": "address[]"
        },
        {
          "internalType": "bool",
          "name": "",
          "type": "bool"
        }
      ],
      "payable": false,
      "stateMutability": "view",
      "type": "function"
    },
    {
      "constant": true,
      "inputs": [
        {
          "internalType": "address",
          "name": "userAddress",
          "type": "address"
        },
        {
          "internalType": "uint8",
          "name": "level",
          "type": "uint8"
        }
      ],
      "name": "usersX6Matrix",
      "outputs": [
        {
          "internalType": "address",
          "name": "",
          "type": "address"
        },
        {
          "internalType": "address[]",
          "name": "",
          "type": "address[]"
        },
        {
          "internalType": "address[]",
          "name": "",
          "type": "address[]"
        },
        {
          "internalType": "bool",
          "name": "",
          "type": "bool"
        },
        {
          "internalType": "address",
          "name": "",
          "type": "address"
        }
      ],
      "payable": false,
      "stateMutability": "view",
      "type": "function"
    },
    {
      "constant": true,
      "inputs": [
        {
          "internalType": "address",
          "name": "userAddress",
          "type": "address"
        },
        {
          "internalType": "uint8",
          "name": "level",
          "type": "uint8"
        }
      ],
      "name": "usersActiveX3Levels",
      "outputs": [
        {
          "internalType": "bool",
          "name": "",
          "type": "bool"
        }
      ],
      "payable": false,
      "stateMutability": "view",
      "type": "function"
    },
    {
      "constant": true,
      "inputs": [
        {
          "internalType": "address",
          "name": "userAddress",
          "type": "address"
        },
        {
          "internalType": "uint8",
          "name": "level",
          "type": "uint8"
        }
      ],
      "name": "usersActiveX6Levels",
      "outputs": [
        {
          "internalType": "bool",
          "name": "",
          "type": "bool"
        }
      ],
      "payable": false,
      "stateMutability": "view",
      "type": "function"
    },
    {
      "constant": true,
      "inputs": [
        {
          "internalType": "address",
          "name": "userAddress",
          "type": "address"
        },
        {
          "internalType": "uint8",
          "name": "level",
          "type": "uint8"
        }
      ],
      "name": "findFreeX3Referrer",
      "outputs": [
        {
          "internalType": "address",
          "name": "",
          "type": "address"
        }
      ],
      "payable": false,
      "stateMutability": "view",
      "type": "function"
    },
    {
      "constant": true,
      "inputs": [
        {
          "internalType": "address",
          "name": "userAddress",
          "type": "address"
        },
        {
          "internalType": "uint8",
          "name": "level",
          "type": "uint8"
        }
      ],
      "name": "findFreeX6Referrer",
      "outputs": [
        {
          "internalType": "address",
          "name": "",
          "type": "address"
        }
      ],
      "payable": false,
      "stateMutability": "view",
      "type": "function"
    }
  ],
  "bytecode": "0x608060405260026004553480156200001657600080fd5b50604051620062f3380380620062f3833981810160405260208110156200003c57600080fd5b81019080805190602001909291905050506658d15e1762800060066000600160ff168152602001908152602001600020819055506000600290505b600c60ff168160ff1611620000d1576002600660006001840360ff1660ff1681526020019081526020016000205402600660008360ff1660ff16815260200190815260200160002081905550808060010191505062000077565b5080600560006101000a81548173ffffffffffffffffffffffffffffffffffffffff021916908373ffffffffffffffffffffffffffffffffffffffff1602179055506200011d620003a5565b604051806060016040528060018152602001600073ffffffffffffffffffffffffffffffffffffffff16815260200160008152509050806000808473ffffffffffffffffffffffffffffffffffffffff1673ffffffffffffffffffffffffffffffffffffffff1681526020019081526020016000206000820151816000015560208201518160010160006101000a81548173ffffffffffffffffffffffffffffffffffffffff021916908373ffffffffffffffffffffffffffffffffffffffff1602179055506040820151816002015590505081600160006001815260200190815260200160002060006101000a81548173ffffffffffffffffffffffffffffffffffffffff021916908373ffffffffffffffffffffffffffffffffffffffff1602179055506000600190505b600c60ff168160ff1611620003495760016000808573ffffffffffffffffffffffffffffffffffffffff1673ffffffffffffffffffffffffffffffffffffffff16815260200190815260200160002060030160008360ff1660ff16815260200190815260200160002060006101000a81548160ff02191690831515021790555060016000808573ffffffffffffffffffffffffffffffffffffffff1673ffffffffffffffffffffffffffffffffffffffff16815260200190815260200160002060040160008360ff1660ff16815260200190815260200160002060006101000a81548160ff02191690831515021790555080806001019150506200024a565b5081600260006001815260200190815260200160002060006101000a81548173ffffffffffffffffffffffffffffffffffffffff021916908373ffffffffffffffffffffffffffffffffffffffff1602179055505050620003dc565b604051806060016040528060008152602001600073ffffffffffffffffffffffffffffffffffffffff168152602001600081525090565b615f0780620003ec6000396000f3fe6080604052600436106100fe5760003560e01c806383ba31b211610095578063b2f7543a11610064578063b2f7543a146107c2578063be389d5714610838578063e06e8dbd14610876578063ecabdf7914610914578063fa45323d14610966576100fe565b806383ba31b21461046f5780638da5cb5b146105605780639cc102fc146105b7578063a87430ba14610723576100fe565b8063348d4487116100d1578063348d44871461031c5780634635fd6814610347578063509222cd146103c2578063797eee241461042b576100fe565b806307279e2a1461019557806327e235e31461020b57806329c70400146102705780632a2d0c47146102a1575b600080369050141561013b5761013633600560009054906101000a900473ffffffffffffffffffffffffffffffffffffffff16610a04565b610193565b6101923361018d6000368080601f016020809104026020016040519081016040528093929190818152602001838380828437600081840152601f19601f820116905080830192505050505050506110f5565b610a04565b5b005b3480156101a157600080fd5b506101f1600480360360408110156101b857600080fd5b81019080803573ffffffffffffffffffffffffffffffffffffffff169060200190929190803560ff169060200190929190505050611103565b604051808215151515815260200191505060405180910390f35b34801561021757600080fd5b5061025a6004803603602081101561022e57600080fd5b81019080803573ffffffffffffffffffffffffffffffffffffffff169060200190929190505050611173565b6040518082815260200191505060405180910390f35b34801561027c57600080fd5b5061028561118b565b604051808260ff1660ff16815260200191505060405180910390f35b3480156102ad57600080fd5b506102da600480360360208110156102c457600080fd5b8101908080359060200190929190505050611190565b604051808273ffffffffffffffffffffffffffffffffffffffff1673ffffffffffffffffffffffffffffffffffffffff16815260200191505060405180910390f35b34801561032857600080fd5b506103316111c3565b6040518082815260200191505060405180910390f35b34801561035357600080fd5b506103806004803603602081101561036a57600080fd5b81019080803590602001909291905050506111c9565b604051808273ffffffffffffffffffffffffffffffffffffffff1673ffffffffffffffffffffffffffffffffffffffff16815260200191505060405180910390f35b3480156103ce57600080fd5b50610411600480360360208110156103e557600080fd5b81019080803573ffffffffffffffffffffffffffffffffffffffff1690602001909291905050506111fc565b604051808215151515815260200191505060405180910390f35b61046d6004803603602081101561044157600080fd5b81019080803573ffffffffffffffffffffffffffffffffffffffff16906020019092919050505061124a565b005b34801561047b57600080fd5b506104cb6004803603604081101561049257600080fd5b81019080803573ffffffffffffffffffffffffffffffffffffffff169060200190929190803560ff169060200190929190505050611257565b604051808473ffffffffffffffffffffffffffffffffffffffff1673ffffffffffffffffffffffffffffffffffffffff1681526020018060200183151515158152602001828103825284818151815260200191508051906020019060200280838360005b8381101561054a57808201518184015260208101905061052f565b5050505090500194505050505060405180910390f35b34801561056c57600080fd5b50610575611432565b604051808273ffffffffffffffffffffffffffffffffffffffff1673ffffffffffffffffffffffffffffffffffffffff16815260200191505060405180910390f35b3480156105c357600080fd5b50610613600480360360408110156105da57600080fd5b81019080803573ffffffffffffffffffffffffffffffffffffffff169060200190929190803560ff169060200190929190505050611458565b604051808673ffffffffffffffffffffffffffffffffffffffff1673ffffffffffffffffffffffffffffffffffffffff1681526020018060200180602001851515151581526020018473ffffffffffffffffffffffffffffffffffffffff1673ffffffffffffffffffffffffffffffffffffffff168152602001838103835287818151815260200191508051906020019060200280838360005b838110156106c85780820151818401526020810190506106ad565b50505050905001838103825286818151815260200191508051906020019060200280838360005b8381101561070a5780820151818401526020810190506106ef565b5050505090500197505050505050505060405180910390f35b34801561072f57600080fd5b506107726004803603602081101561074657600080fd5b81019080803573ffffffffffffffffffffffffffffffffffffffff16906020019092919050505061179b565b604051808481526020018373ffffffffffffffffffffffffffffffffffffffff1673ffffffffffffffffffffffffffffffffffffffff168152602001828152602001935050505060405180910390f35b3480156107ce57600080fd5b5061081e600480360360408110156107e557600080fd5b81019080803573ffffffffffffffffffffffffffffffffffffffff169060200190929190803560ff1690602001909291905050506117e5565b604051808215151515815260200191505060405180910390f35b6108746004803603604081101561084e57600080fd5b81019080803560ff169060200190929190803560ff169060200190929190505050611855565b005b34801561088257600080fd5b506108d26004803603604081101561089957600080fd5b81019080803573ffffffffffffffffffffffffffffffffffffffff169060200190929190803560ff16906020019092919050505061208c565b604051808273ffffffffffffffffffffffffffffffffffffffff1673ffffffffffffffffffffffffffffffffffffffff16815260200191505060405180910390f35b34801561092057600080fd5b506109506004803603602081101561093757600080fd5b81019080803560ff16906020019092919050505061223b565b6040518082815260200191505060405180910390f35b34801561097257600080fd5b506109c26004803603604081101561098957600080fd5b81019080803573ffffffffffffffffffffffffffffffffffffffff169060200190929190803560ff169060200190929190505050612253565b604051808273ffffffffffffffffffffffffffffffffffffffff1673ffffffffffffffffffffffffffffffffffffffff16815260200191505060405180910390f35b66b1a2bc2ec500003414610a80576040517f08c379a00000000000000000000000000000000000000000000000000000000081526004018080602001828103825260168152602001807f726567697374726174696f6e20636f737420302e30350000000000000000000081525060200191505060405180910390fd5b610a89826111fc565b15610afc576040517f08c379a000000000000000000000000000000000000000000000000000000000815260040180806020018281038252600b8152602001807f757365722065786973747300000000000000000000000000000000000000000081525060200191505060405180910390fd5b610b05816111fc565b610b77576040517f08c379a00000000000000000000000000000000000000000000000000000000081526004018080602001828103825260138152602001807f7265666572726572206e6f74206578697374730000000000000000000000000081525060200191505060405180910390fd5b6000823b905060008163ffffffff1614610bf9576040517f08c379a00000000000000000000000000000000000000000000000000000000081526004018080602001828103825260148152602001807f63616e6e6f74206265206120636f6e747261637400000000000000000000000081525060200191505060405180910390fd5b610c01615dab565b604051806060016040528060045481526020018473ffffffffffffffffffffffffffffffffffffffff16815260200160008152509050806000808673ffffffffffffffffffffffffffffffffffffffff1673ffffffffffffffffffffffffffffffffffffffff1681526020019081526020016000206000820151816000015560208201518160010160006101000a81548173ffffffffffffffffffffffffffffffffffffffff021916908373ffffffffffffffffffffffffffffffffffffffff160217905550604082015181600201559050508360016000600454815260200190815260200160002060006101000a81548173ffffffffffffffffffffffffffffffffffffffff021916908373ffffffffffffffffffffffffffffffffffffffff160217905550826000808673ffffffffffffffffffffffffffffffffffffffff1673ffffffffffffffffffffffffffffffffffffffff16815260200190815260200160002060010160006101000a81548173ffffffffffffffffffffffffffffffffffffffff021916908373ffffffffffffffffffffffffffffffffffffffff16021790555060016000808673ffffffffffffffffffffffffffffffffffffffff1673ffffffffffffffffffffffffffffffffffffffff1681526020019081526020016000206003016000600160ff16815260200190815260200160002060006101000a81548160ff02191690831515021790555060016000808673ffffffffffffffffffffffffffffffffffffffff1673ffffffffffffffffffffffffffffffffffffffff1681526020019081526020016000206004016000600160ff16815260200190815260200160002060006101000a81548160ff0219169083151502179055508360026000600454815260200190815260200160002060006101000a81548173ffffffffffffffffffffffffffffffffffffffff021916908373ffffffffffffffffffffffffffffffffffffffff1602179055506004600081548092919060010191905055506000808473ffffffffffffffffffffffffffffffffffffffff1673ffffffffffffffffffffffffffffffffffffffff168152602001908152602001600020600201600081548092919060010191905055506000610f4a856001612253565b9050806000808773ffffffffffffffffffffffffffffffffffffffff1673ffffffffffffffffffffffffffffffffffffffff1681526020019081526020016000206005016000600160ff16815260200190815260200160002060000160006101000a81548173ffffffffffffffffffffffffffffffffffffffff021916908373ffffffffffffffffffffffffffffffffffffffff160217905550610ff085826001612402565b61100685610fff87600161208c565b6001612c61565b6000808673ffffffffffffffffffffffffffffffffffffffff1673ffffffffffffffffffffffffffffffffffffffff168152602001908152602001600020600001548473ffffffffffffffffffffffffffffffffffffffff168673ffffffffffffffffffffffffffffffffffffffff167f309bb360e8b69c23937ccc5fb01f9aeeead1c95a99604e175113ff82f2b1723a6000808973ffffffffffffffffffffffffffffffffffffffff1673ffffffffffffffffffffffffffffffffffffffff168152602001908152602001600020600001546040518082815260200191505060405180910390a45050505050565b600060148201519050919050565b60008060008473ffffffffffffffffffffffffffffffffffffffff1673ffffffffffffffffffffffffffffffffffffffff16815260200190815260200160002060030160008360ff1660ff16815260200190815260200160002060009054906101000a900460ff16905092915050565b60036020528060005260406000206000915090505481565b600c81565b60016020528060005260406000206000915054906101000a900473ffffffffffffffffffffffffffffffffffffffff1681565b60045481565b60026020528060005260406000206000915054906101000a900473ffffffffffffffffffffffffffffffffffffffff1681565b6000806000808473ffffffffffffffffffffffffffffffffffffffff1673ffffffffffffffffffffffffffffffffffffffff1681526020019081526020016000206000015414159050919050565b6112543382610a04565b50565b6000606060008060008673ffffffffffffffffffffffffffffffffffffffff1673ffffffffffffffffffffffffffffffffffffffff16815260200190815260200160002060050160008560ff1660ff16815260200190815260200160002060000160009054906101000a900473ffffffffffffffffffffffffffffffffffffffff166000808773ffffffffffffffffffffffffffffffffffffffff1673ffffffffffffffffffffffffffffffffffffffff16815260200190815260200160002060050160008660ff1660ff1681526020019081526020016000206001016000808873ffffffffffffffffffffffffffffffffffffffff1673ffffffffffffffffffffffffffffffffffffffff16815260200190815260200160002060050160008760ff1660ff16815260200190815260200160002060020160009054906101000a900460ff168180548060200260200160405190810160405280929190818152602001828054801561141e57602002820191906000526020600020905b8160009054906101000a900473ffffffffffffffffffffffffffffffffffffffff1673ffffffffffffffffffffffffffffffffffffffff16815260200190600101908083116113d4575b505050505091509250925092509250925092565b600560009054906101000a900473ffffffffffffffffffffffffffffffffffffffff1681565b60006060806000806000808873ffffffffffffffffffffffffffffffffffffffff1673ffffffffffffffffffffffffffffffffffffffff16815260200190815260200160002060060160008760ff1660ff16815260200190815260200160002060000160009054906101000a900473ffffffffffffffffffffffffffffffffffffffff166000808973ffffffffffffffffffffffffffffffffffffffff1673ffffffffffffffffffffffffffffffffffffffff16815260200190815260200160002060060160008860ff1660ff1681526020019081526020016000206001016000808a73ffffffffffffffffffffffffffffffffffffffff1673ffffffffffffffffffffffffffffffffffffffff16815260200190815260200160002060060160008960ff1660ff1681526020019081526020016000206002016000808b73ffffffffffffffffffffffffffffffffffffffff1673ffffffffffffffffffffffffffffffffffffffff16815260200190815260200160002060060160008a60ff1660ff16815260200190815260200160002060030160009054906101000a900460ff166000808c73ffffffffffffffffffffffffffffffffffffffff1673ffffffffffffffffffffffffffffffffffffffff16815260200190815260200160002060060160008b60ff1660ff16815260200190815260200160002060050160009054906101000a900473ffffffffffffffffffffffffffffffffffffffff16838054806020026020016040519081016040528092919081815260200182805480156116f857602002820191906000526020600020905b8160009054906101000a900473ffffffffffffffffffffffffffffffffffffffff1673ffffffffffffffffffffffffffffffffffffffff16815260200190600101908083116116ae575b505050505093508280548060200260200160405190810160405280929190818152602001828054801561178057602002820191906000526020600020905b8160009054906101000a900473ffffffffffffffffffffffffffffffffffffffff1673ffffffffffffffffffffffffffffffffffffffff1681526020019060010190808311611736575b50505050509250945094509450945094509295509295909350565b60006020528060005260406000206000915090508060000154908060010160009054906101000a900473ffffffffffffffffffffffffffffffffffffffff16908060020154905083565b60008060008473ffffffffffffffffffffffffffffffffffffffff1673ffffffffffffffffffffffffffffffffffffffff16815260200190815260200160002060040160008360ff1660ff16815260200190815260200160002060009054906101000a900460ff16905092915050565b61185e336111fc565b6118b3576040517f08c379a0000000000000000000000000000000000000000000000000000000008152600401808060200182810382526023815260200180615eb06023913960400191505060405180910390fd5b60018260ff1614806118c8575060028260ff16145b61193a576040517f08c379a000000000000000000000000000000000000000000000000000000000815260040180806020018281038252600e8152602001807f696e76616c6964206d617472697800000000000000000000000000000000000081525060200191505060405180910390fd5b600660008260ff1660ff1681526020019081526020016000205434146119c8576040517f08c379a000000000000000000000000000000000000000000000000000000000815260040180806020018281038252600d8152602001807f696e76616c69642070726963650000000000000000000000000000000000000081525060200191505060405180910390fd5b60018160ff161180156119e25750600c60ff168160ff1611155b611a54576040517f08c379a000000000000000000000000000000000000000000000000000000000815260040180806020018281038252600d8152602001807f696e76616c6964206c6576656c0000000000000000000000000000000000000081525060200191505060405180910390fd5b60018260ff161415611dc3576000803373ffffffffffffffffffffffffffffffffffffffff1673ffffffffffffffffffffffffffffffffffffffff16815260200190815260200160002060030160008260ff1660ff16815260200190815260200160002060009054906101000a900460ff1615611b39576040517f08c379a00000000000000000000000000000000000000000000000000000000081526004018080602001828103825260178152602001807f6c6576656c20616c72656164792061637469766174656400000000000000000081525060200191505060405180910390fd5b6000803373ffffffffffffffffffffffffffffffffffffffff1673ffffffffffffffffffffffffffffffffffffffff16815260200190815260200160002060050160006001830360ff1660ff16815260200190815260200160002060020160009054906101000a900460ff1615611c225760008060003373ffffffffffffffffffffffffffffffffffffffff1673ffffffffffffffffffffffffffffffffffffffff16815260200190815260200160002060050160006001840360ff1660ff16815260200190815260200160002060020160006101000a81548160ff0219169083151502179055505b6000611c2e3383612253565b9050806000803373ffffffffffffffffffffffffffffffffffffffff1673ffffffffffffffffffffffffffffffffffffffff16815260200190815260200160002060050160008460ff1660ff16815260200190815260200160002060000160006101000a81548173ffffffffffffffffffffffffffffffffffffffff021916908373ffffffffffffffffffffffffffffffffffffffff16021790555060016000803373ffffffffffffffffffffffffffffffffffffffff1673ffffffffffffffffffffffffffffffffffffffff16815260200190815260200160002060030160008460ff1660ff16815260200190815260200160002060006101000a81548160ff021916908315150217905550611d46338284612402565b8073ffffffffffffffffffffffffffffffffffffffff163373ffffffffffffffffffffffffffffffffffffffff167f18a92df19fd94d6cfff209966673a5ca05a1c8e2bb68e097fce2bdc2ed811119600185604051808360ff1681526020018260ff1660ff1681526020019250505060405180910390a350612088565b6000803373ffffffffffffffffffffffffffffffffffffffff1673ffffffffffffffffffffffffffffffffffffffff16815260200190815260200160002060040160008260ff1660ff16815260200190815260200160002060009054906101000a900460ff1615611e9c576040517f08c379a00000000000000000000000000000000000000000000000000000000081526004018080602001828103825260178152602001807f6c6576656c20616c72656164792061637469766174656400000000000000000081525060200191505060405180910390fd5b6000803373ffffffffffffffffffffffffffffffffffffffff1673ffffffffffffffffffffffffffffffffffffffff16815260200190815260200160002060060160006001830360ff1660ff16815260200190815260200160002060030160009054906101000a900460ff1615611f855760008060003373ffffffffffffffffffffffffffffffffffffffff1673ffffffffffffffffffffffffffffffffffffffff16815260200190815260200160002060060160006001840360ff1660ff16815260200190815260200160002060030160006101000a81548160ff0219169083151502179055505b6000611f91338361208c565b905060016000803373ffffffffffffffffffffffffffffffffffffffff1673ffffffffffffffffffffffffffffffffffffffff16815260200190815260200160002060040160008460ff1660ff16815260200190815260200160002060006101000a81548160ff02191690831515021790555061200f338284612c61565b8073ffffffffffffffffffffffffffffffffffffffff163373ffffffffffffffffffffffffffffffffffffffff167f18a92df19fd94d6cfff209966673a5ca05a1c8e2bb68e097fce2bdc2ed811119600285604051808360ff1681526020018260ff1660ff1681526020019250505060405180910390a3505b5050565b60005b600115612234576000808060008673ffffffffffffffffffffffffffffffffffffffff1673ffffffffffffffffffffffffffffffffffffffff16815260200190815260200160002060010160009054906101000a900473ffffffffffffffffffffffffffffffffffffffff1673ffffffffffffffffffffffffffffffffffffffff1673ffffffffffffffffffffffffffffffffffffffff16815260200190815260200160002060040160008360ff1660ff16815260200190815260200160002060009054906101000a900460ff16156121cb576000808473ffffffffffffffffffffffffffffffffffffffff1673ffffffffffffffffffffffffffffffffffffffff16815260200190815260200160002060010160009054906101000a900473ffffffffffffffffffffffffffffffffffffffff169050612235565b6000808473ffffffffffffffffffffffffffffffffffffffff1673ffffffffffffffffffffffffffffffffffffffff16815260200190815260200160002060010160009054906101000a900473ffffffffffffffffffffffffffffffffffffffff16925061208f565b5b92915050565b60066020528060005260406000206000915090505481565b60005b6001156123fb576000808060008673ffffffffffffffffffffffffffffffffffffffff1673ffffffffffffffffffffffffffffffffffffffff16815260200190815260200160002060010160009054906101000a900473ffffffffffffffffffffffffffffffffffffffff1673ffffffffffffffffffffffffffffffffffffffff1673ffffffffffffffffffffffffffffffffffffffff16815260200190815260200160002060030160008360ff1660ff16815260200190815260200160002060009054906101000a900460ff1615612392576000808473ffffffffffffffffffffffffffffffffffffffff1673ffffffffffffffffffffffffffffffffffffffff16815260200190815260200160002060010160009054906101000a900473ffffffffffffffffffffffffffffffffffffffff1690506123fc565b6000808473ffffffffffffffffffffffffffffffffffffffff1673ffffffffffffffffffffffffffffffffffffffff16815260200190815260200160002060010160009054906101000a900473ffffffffffffffffffffffffffffffffffffffff169250612256565b5b92915050565b6000808373ffffffffffffffffffffffffffffffffffffffff1673ffffffffffffffffffffffffffffffffffffffff16815260200190815260200160002060050160008260ff1660ff1681526020019081526020016000206001018390806001815401808255809150509060018203906000526020600020016000909192909190916101000a81548173ffffffffffffffffffffffffffffffffffffffff021916908373ffffffffffffffffffffffffffffffffffffffff1602179055505060036000808473ffffffffffffffffffffffffffffffffffffffff1673ffffffffffffffffffffffffffffffffffffffff16815260200190815260200160002060050160008360ff1660ff16815260200190815260200160002060010180549050101561261d578173ffffffffffffffffffffffffffffffffffffffff168373ffffffffffffffffffffffffffffffffffffffff167f68062c5925c4317adf3a7095478d28b33fd8b41458bc7620b61bc46bf1b24d826001846000808873ffffffffffffffffffffffffffffffffffffffff1673ffffffffffffffffffffffffffffffffffffffff16815260200190815260200160002060050160008760ff1660ff16815260200190815260200160002060010180549050604051808460ff1681526020018360ff1660ff1681526020018260ff1660ff168152602001935050505060405180910390a3612618828460018461431c565b612c5c565b8173ffffffffffffffffffffffffffffffffffffffff168373ffffffffffffffffffffffffffffffffffffffff167f68062c5925c4317adf3a7095478d28b33fd8b41458bc7620b61bc46bf1b24d826001846003604051808460ff1681526020018360ff1660ff1681526020018260ff168152602001935050505060405180910390a360006040519080825280602002602001820160405280156126d05781602001602082028038833980820191505090505b506000808473ffffffffffffffffffffffffffffffffffffffff1673ffffffffffffffffffffffffffffffffffffffff16815260200190815260200160002060050160008360ff1660ff168152602001908152602001600020600101908051906020019061273f929190615de2565b506000808373ffffffffffffffffffffffffffffffffffffffff1673ffffffffffffffffffffffffffffffffffffffff16815260200190815260200160002060030160006001830160ff1660ff16815260200190815260200160002060009054906101000a900460ff161580156127bd5750600c60ff168160ff1614155b156128375760016000808473ffffffffffffffffffffffffffffffffffffffff1673ffffffffffffffffffffffffffffffffffffffff16815260200190815260200160002060050160008360ff1660ff16815260200190815260200160002060020160006101000a81548160ff0219169083151502179055505b600560009054906101000a900473ffffffffffffffffffffffffffffffffffffffff1673ffffffffffffffffffffffffffffffffffffffff168273ffffffffffffffffffffffffffffffffffffffff1614612aed5760006128988383612253565b90508073ffffffffffffffffffffffffffffffffffffffff166000808573ffffffffffffffffffffffffffffffffffffffff1673ffffffffffffffffffffffffffffffffffffffff16815260200190815260200160002060050160008460ff1660ff16815260200190815260200160002060000160009054906101000a900473ffffffffffffffffffffffffffffffffffffffff1673ffffffffffffffffffffffffffffffffffffffff16146129e357806000808573ffffffffffffffffffffffffffffffffffffffff1673ffffffffffffffffffffffffffffffffffffffff16815260200190815260200160002060050160008460ff1660ff16815260200190815260200160002060000160006101000a81548173ffffffffffffffffffffffffffffffffffffffff021916908373ffffffffffffffffffffffffffffffffffffffff1602179055505b6000808473ffffffffffffffffffffffffffffffffffffffff1673ffffffffffffffffffffffffffffffffffffffff16815260200190815260200160002060050160008360ff1660ff168152602001908152602001600020600301600081548092919060010191905055508373ffffffffffffffffffffffffffffffffffffffff168173ffffffffffffffffffffffffffffffffffffffff168473ffffffffffffffffffffffffffffffffffffffff167fa00c953eff38ec1b71e7fe060b2ab8df0bbe5354319fbdde4fbdafd6324386a6600186604051808360ff1681526020018260ff1660ff1681526020019250505060405180910390a4612ae7838284612402565b50612c5b565b612b1c600560009054906101000a900473ffffffffffffffffffffffffffffffffffffffff168460018461431c565b600080600560009054906101000a900473ffffffffffffffffffffffffffffffffffffffff1673ffffffffffffffffffffffffffffffffffffffff1673ffffffffffffffffffffffffffffffffffffffff16815260200190815260200160002060050160008260ff1660ff168152602001908152602001600020600301600081548092919060010191905055508273ffffffffffffffffffffffffffffffffffffffff16600073ffffffffffffffffffffffffffffffffffffffff16600560009054906101000a900473ffffffffffffffffffffffffffffffffffffffff1673ffffffffffffffffffffffffffffffffffffffff167fa00c953eff38ec1b71e7fe060b2ab8df0bbe5354319fbdde4fbdafd6324386a6600185604051808360ff1681526020018260ff1660ff1681526020019250505060405180910390a45b5b505050565b6000808373ffffffffffffffffffffffffffffffffffffffff1673ffffffffffffffffffffffffffffffffffffffff16815260200190815260200160002060040160008260ff1660ff16815260200190815260200160002060009054906101000a900460ff16612d39576040517f08c379a000000000000000000000000000000000000000000000000000000000815260040180806020018281038252601f8152602001807f3530302e205265666572726572206c6576656c20697320696e6163746976650081525060200191505060405180910390fd5b60026000808473ffffffffffffffffffffffffffffffffffffffff1673ffffffffffffffffffffffffffffffffffffffff16815260200190815260200160002060060160008360ff1660ff1681526020019081526020016000206001018054905010156139a4576000808373ffffffffffffffffffffffffffffffffffffffff1673ffffffffffffffffffffffffffffffffffffffff16815260200190815260200160002060060160008260ff1660ff1681526020019081526020016000206001018390806001815401808255809150509060018203906000526020600020016000909192909190916101000a81548173ffffffffffffffffffffffffffffffffffffffff021916908373ffffffffffffffffffffffffffffffffffffffff160217905550508173ffffffffffffffffffffffffffffffffffffffff168373ffffffffffffffffffffffffffffffffffffffff167f68062c5925c4317adf3a7095478d28b33fd8b41458bc7620b61bc46bf1b24d826002846000808873ffffffffffffffffffffffffffffffffffffffff1673ffffffffffffffffffffffffffffffffffffffff16815260200190815260200160002060060160008760ff1660ff16815260200190815260200160002060010180549050604051808460ff1681526020018360ff1660ff1681526020018260ff1660ff168152602001935050505060405180910390a3816000808573ffffffffffffffffffffffffffffffffffffffff1673ffffffffffffffffffffffffffffffffffffffff16815260200190815260200160002060060160008360ff1660ff16815260200190815260200160002060000160006101000a81548173ffffffffffffffffffffffffffffffffffffffff021916908373ffffffffffffffffffffffffffffffffffffffff160217905550600560009054906101000a900473ffffffffffffffffffffffffffffffffffffffff1673ffffffffffffffffffffffffffffffffffffffff168273ffffffffffffffffffffffffffffffffffffffff1614156130445761303f828460028461431c565b614317565b60008060008473ffffffffffffffffffffffffffffffffffffffff1673ffffffffffffffffffffffffffffffffffffffff16815260200190815260200160002060060160008360ff1660ff16815260200190815260200160002060000160009054906101000a900473ffffffffffffffffffffffffffffffffffffffff1690506000808273ffffffffffffffffffffffffffffffffffffffff1673ffffffffffffffffffffffffffffffffffffffff16815260200190815260200160002060060160008360ff1660ff1681526020019081526020016000206002018490806001815401808255809150509060018203906000526020600020016000909192909190916101000a81548173ffffffffffffffffffffffffffffffffffffffff021916908373ffffffffffffffffffffffffffffffffffffffff1602179055505060008060008373ffffffffffffffffffffffffffffffffffffffff1673ffffffffffffffffffffffffffffffffffffffff16815260200190815260200160002060060160008460ff1660ff1681526020019081526020016000206001018054905090506002811480156132b257508373ffffffffffffffffffffffffffffffffffffffff166000808473ffffffffffffffffffffffffffffffffffffffff1673ffffffffffffffffffffffffffffffffffffffff16815260200190815260200160002060060160008560ff1660ff16815260200190815260200160002060010160008154811061326f57fe5b9060005260206000200160009054906101000a900473ffffffffffffffffffffffffffffffffffffffff1673ffffffffffffffffffffffffffffffffffffffff16145b801561337a57508373ffffffffffffffffffffffffffffffffffffffff166000808473ffffffffffffffffffffffffffffffffffffffff1673ffffffffffffffffffffffffffffffffffffffff16815260200190815260200160002060060160008560ff1660ff16815260200190815260200160002060010160018154811061333757fe5b9060005260206000200160009054906101000a900473ffffffffffffffffffffffffffffffffffffffff1673ffffffffffffffffffffffffffffffffffffffff16145b156134f75760016000808673ffffffffffffffffffffffffffffffffffffffff1673ffffffffffffffffffffffffffffffffffffffff16815260200190815260200160002060060160008560ff1660ff16815260200190815260200160002060010180549050141561346e578173ffffffffffffffffffffffffffffffffffffffff168573ffffffffffffffffffffffffffffffffffffffff167f68062c5925c4317adf3a7095478d28b33fd8b41458bc7620b61bc46bf1b24d826002866005604051808460ff1681526020018360ff1660ff1681526020018260ff168152602001935050505060405180910390a36134f2565b8173ffffffffffffffffffffffffffffffffffffffff168573ffffffffffffffffffffffffffffffffffffffff167f68062c5925c4317adf3a7095478d28b33fd8b41458bc7620b61bc46bf1b24d826002866006604051808460ff1681526020018360ff1660ff1681526020018260ff168152602001935050505060405180910390a35b613992565b60018114806135065750600281145b80156135ce57508373ffffffffffffffffffffffffffffffffffffffff166000808473ffffffffffffffffffffffffffffffffffffffff1673ffffffffffffffffffffffffffffffffffffffff16815260200190815260200160002060060160008560ff1660ff16815260200190815260200160002060010160008154811061358b57fe5b9060005260206000200160009054906101000a900473ffffffffffffffffffffffffffffffffffffffff1673ffffffffffffffffffffffffffffffffffffffff16145b1561374b5760016000808673ffffffffffffffffffffffffffffffffffffffff1673ffffffffffffffffffffffffffffffffffffffff16815260200190815260200160002060060160008560ff1660ff1681526020019081526020016000206001018054905014156136c2578173ffffffffffffffffffffffffffffffffffffffff168573ffffffffffffffffffffffffffffffffffffffff167f68062c5925c4317adf3a7095478d28b33fd8b41458bc7620b61bc46bf1b24d826002866003604051808460ff1681526020018360ff1660ff1681526020018260ff168152602001935050505060405180910390a3613746565b8173ffffffffffffffffffffffffffffffffffffffff168573ffffffffffffffffffffffffffffffffffffffff167f68062c5925c4317adf3a7095478d28b33fd8b41458bc7620b61bc46bf1b24d826002866004604051808460ff1681526020018360ff1660ff1681526020018260ff168152602001935050505060405180910390a35b613991565b60028114801561381757508373ffffffffffffffffffffffffffffffffffffffff166000808473ffffffffffffffffffffffffffffffffffffffff1673ffffffffffffffffffffffffffffffffffffffff16815260200190815260200160002060060160008560ff1660ff1681526020019081526020016000206001016001815481106137d457fe5b9060005260206000200160009054906101000a900473ffffffffffffffffffffffffffffffffffffffff1673ffffffffffffffffffffffffffffffffffffffff16145b156139905760016000808673ffffffffffffffffffffffffffffffffffffffff1673ffffffffffffffffffffffffffffffffffffffff16815260200190815260200160002060060160008560ff1660ff16815260200190815260200160002060010180549050141561390b578173ffffffffffffffffffffffffffffffffffffffff168573ffffffffffffffffffffffffffffffffffffffff167f68062c5925c4317adf3a7095478d28b33fd8b41458bc7620b61bc46bf1b24d826002866005604051808460ff1681526020018360ff1660ff1681526020018260ff168152602001935050505060405180910390a361398f565b8173ffffffffffffffffffffffffffffffffffffffff168573ffffffffffffffffffffffffffffffffffffffff167f68062c5925c4317adf3a7095478d28b33fd8b41458bc7620b61bc46bf1b24d826002866006604051808460ff1681526020018360ff1660ff1681526020018260ff168152602001935050505060405180910390a35b5b5b5b61399d858385614458565b5050614317565b6000808373ffffffffffffffffffffffffffffffffffffffff1673ffffffffffffffffffffffffffffffffffffffff16815260200190815260200160002060060160008260ff1660ff1681526020019081526020016000206002018390806001815401808255809150509060018203906000526020600020016000909192909190916101000a81548173ffffffffffffffffffffffffffffffffffffffff021916908373ffffffffffffffffffffffffffffffffffffffff16021790555050600073ffffffffffffffffffffffffffffffffffffffff166000808473ffffffffffffffffffffffffffffffffffffffff1673ffffffffffffffffffffffffffffffffffffffff16815260200190815260200160002060060160008360ff1660ff16815260200190815260200160002060050160009054906101000a900473ffffffffffffffffffffffffffffffffffffffff1673ffffffffffffffffffffffffffffffffffffffff1614613f42576000808373ffffffffffffffffffffffffffffffffffffffff1673ffffffffffffffffffffffffffffffffffffffff16815260200190815260200160002060060160008260ff1660ff168152602001908152602001600020600101600181548110613b7957fe5b9060005260206000200160009054906101000a900473ffffffffffffffffffffffffffffffffffffffff1673ffffffffffffffffffffffffffffffffffffffff166000808473ffffffffffffffffffffffffffffffffffffffff1673ffffffffffffffffffffffffffffffffffffffff16815260200190815260200160002060060160008360ff1660ff168152602001908152602001600020600101600081548110613c2157fe5b9060005260206000200160009054906101000a900473ffffffffffffffffffffffffffffffffffffffff1673ffffffffffffffffffffffffffffffffffffffff16148015613da657506000808373ffffffffffffffffffffffffffffffffffffffff1673ffffffffffffffffffffffffffffffffffffffff16815260200190815260200160002060060160008260ff1660ff16815260200190815260200160002060050160009054906101000a900473ffffffffffffffffffffffffffffffffffffffff1673ffffffffffffffffffffffffffffffffffffffff166000808473ffffffffffffffffffffffffffffffffffffffff1673ffffffffffffffffffffffffffffffffffffffff16815260200190815260200160002060060160008360ff1660ff168152602001908152602001600020600101600081548110613d6357fe5b9060005260206000200160009054906101000a900473ffffffffffffffffffffffffffffffffffffffff1673ffffffffffffffffffffffffffffffffffffffff16145b15613dc857613db88383836001614e78565b613dc3838383614458565b614317565b6000808373ffffffffffffffffffffffffffffffffffffffff1673ffffffffffffffffffffffffffffffffffffffff16815260200190815260200160002060060160008260ff1660ff16815260200190815260200160002060050160009054906101000a900473ffffffffffffffffffffffffffffffffffffffff1673ffffffffffffffffffffffffffffffffffffffff166000808473ffffffffffffffffffffffffffffffffffffffff1673ffffffffffffffffffffffffffffffffffffffff16815260200190815260200160002060060160008360ff1660ff168152602001908152602001600020600101600081548110613ec157fe5b9060005260206000200160009054906101000a900473ffffffffffffffffffffffffffffffffffffffff1673ffffffffffffffffffffffffffffffffffffffff161415613f2557613f158383836001614e78565b613f20838383614458565b614317565b613f328383836000614e78565b613f3d838383614458565b614317565b8273ffffffffffffffffffffffffffffffffffffffff166000808473ffffffffffffffffffffffffffffffffffffffff1673ffffffffffffffffffffffffffffffffffffffff16815260200190815260200160002060060160008360ff1660ff168152602001908152602001600020600101600181548110613fc057fe5b9060005260206000200160009054906101000a900473ffffffffffffffffffffffffffffffffffffffff1673ffffffffffffffffffffffffffffffffffffffff161415614024576140148383836000614e78565b61401f838383614458565b614317565b8273ffffffffffffffffffffffffffffffffffffffff166000808473ffffffffffffffffffffffffffffffffffffffff1673ffffffffffffffffffffffffffffffffffffffff16815260200190815260200160002060060160008360ff1660ff1681526020019081526020016000206001016000815481106140a257fe5b9060005260206000200160009054906101000a900473ffffffffffffffffffffffffffffffffffffffff1673ffffffffffffffffffffffffffffffffffffffff161415614106576140f68383836001614e78565b614101838383614458565b614317565b6000808060008573ffffffffffffffffffffffffffffffffffffffff1673ffffffffffffffffffffffffffffffffffffffff16815260200190815260200160002060060160008460ff1660ff16815260200190815260200160002060010160018154811061417057fe5b9060005260206000200160009054906101000a900473ffffffffffffffffffffffffffffffffffffffff1673ffffffffffffffffffffffffffffffffffffffff1673ffffffffffffffffffffffffffffffffffffffff16815260200190815260200160002060060160008260ff1660ff168152602001908152602001600020600101805490506000808060008673ffffffffffffffffffffffffffffffffffffffff1673ffffffffffffffffffffffffffffffffffffffff16815260200190815260200160002060060160008560ff1660ff16815260200190815260200160002060010160008154811061426057fe5b9060005260206000200160009054906101000a900473ffffffffffffffffffffffffffffffffffffffff1673ffffffffffffffffffffffffffffffffffffffff1673ffffffffffffffffffffffffffffffffffffffff16815260200190815260200160002060060160008360ff1660ff16815260200190815260200160002060010180549050116142fd576142f88383836000614e78565b61430b565b61430a8383836001614e78565b5b614316838383614458565b5b505050565b60008061432b86868686615a77565b915091508173ffffffffffffffffffffffffffffffffffffffff166108fc600660008660ff1660ff168152602001908152602001600020549081150290604051600060405180830381858888f193505050506143cf578173ffffffffffffffffffffffffffffffffffffffff166108fc479081150290604051600060405180830381858888f193505050501580156143c7573d6000803e3d6000fd5b505050614452565b801561444f578173ffffffffffffffffffffffffffffffffffffffff168573ffffffffffffffffffffffffffffffffffffffff167ff0ddc65c0d411f042f723dcfa1b7d13e85a35b7b70761d447c6500411cacf3288686604051808360ff1660ff1681526020018260ff1660ff1681526020019250505060405180910390a35b50505b50505050565b60046000808473ffffffffffffffffffffffffffffffffffffffff1673ffffffffffffffffffffffffffffffffffffffff16815260200190815260200160002060060160008360ff1660ff1681526020019081526020016000206002018054905010156144d1576144cc828460028461431c565b614e73565b60606000808060008673ffffffffffffffffffffffffffffffffffffffff1673ffffffffffffffffffffffffffffffffffffffff16815260200190815260200160002060060160008560ff1660ff16815260200190815260200160002060000160009054906101000a900473ffffffffffffffffffffffffffffffffffffffff1673ffffffffffffffffffffffffffffffffffffffff1673ffffffffffffffffffffffffffffffffffffffff16815260200190815260200160002060060160008360ff1660ff16815260200190815260200160002060010180548060200260200160405190810160405280929190818152602001828054801561462957602002820191906000526020600020905b8160009054906101000a900473ffffffffffffffffffffffffffffffffffffffff1673ffffffffffffffffffffffffffffffffffffffff16815260200190600101908083116145df575b50505050509050600281511415614951578273ffffffffffffffffffffffffffffffffffffffff168160008151811061465e57fe5b602002602001015173ffffffffffffffffffffffffffffffffffffffff1614806146c757508273ffffffffffffffffffffffffffffffffffffffff16816001815181106146a757fe5b602002602001015173ffffffffffffffffffffffffffffffffffffffff16145b156147e657826000808060008773ffffffffffffffffffffffffffffffffffffffff1673ffffffffffffffffffffffffffffffffffffffff16815260200190815260200160002060060160008660ff1660ff16815260200190815260200160002060000160009054906101000a900473ffffffffffffffffffffffffffffffffffffffff1673ffffffffffffffffffffffffffffffffffffffff1673ffffffffffffffffffffffffffffffffffffffff16815260200190815260200160002060060160008460ff1660ff16815260200190815260200160002060050160006101000a81548173ffffffffffffffffffffffffffffffffffffffff021916908373ffffffffffffffffffffffffffffffffffffffff160217905550614950565b60018151141561494f578273ffffffffffffffffffffffffffffffffffffffff168160008151811061481457fe5b602002602001015173ffffffffffffffffffffffffffffffffffffffff16141561494e57826000808060008773ffffffffffffffffffffffffffffffffffffffff1673ffffffffffffffffffffffffffffffffffffffff16815260200190815260200160002060060160008660ff1660ff16815260200190815260200160002060000160009054906101000a900473ffffffffffffffffffffffffffffffffffffffff1673ffffffffffffffffffffffffffffffffffffffff1673ffffffffffffffffffffffffffffffffffffffff16815260200190815260200160002060060160008460ff1660ff16815260200190815260200160002060050160006101000a81548173ffffffffffffffffffffffffffffffffffffffff021916908373ffffffffffffffffffffffffffffffffffffffff1602179055505b5b5b5b60006040519080825280602002602001820160405280156149815781602001602082028038833980820191505090505b506000808573ffffffffffffffffffffffffffffffffffffffff1673ffffffffffffffffffffffffffffffffffffffff16815260200190815260200160002060060160008460ff1660ff16815260200190815260200160002060010190805190602001906149f0929190615de2565b506000604051908082528060200260200182016040528015614a215781602001602082028038833980820191505090505b506000808573ffffffffffffffffffffffffffffffffffffffff1673ffffffffffffffffffffffffffffffffffffffff16815260200190815260200160002060060160008460ff1660ff1681526020019081526020016000206002019080519060200190614a90929190615de2565b5060008060008573ffffffffffffffffffffffffffffffffffffffff1673ffffffffffffffffffffffffffffffffffffffff16815260200190815260200160002060060160008460ff1660ff16815260200190815260200160002060050160006101000a81548173ffffffffffffffffffffffffffffffffffffffff021916908373ffffffffffffffffffffffffffffffffffffffff1602179055506000808473ffffffffffffffffffffffffffffffffffffffff1673ffffffffffffffffffffffffffffffffffffffff16815260200190815260200160002060040160006001840160ff1660ff16815260200190815260200160002060009054906101000a900460ff16158015614ba95750600c60ff168260ff1614155b15614c235760016000808573ffffffffffffffffffffffffffffffffffffffff1673ffffffffffffffffffffffffffffffffffffffff16815260200190815260200160002060060160008460ff1660ff16815260200190815260200160002060030160006101000a81548160ff0219169083151502179055505b6000808473ffffffffffffffffffffffffffffffffffffffff1673ffffffffffffffffffffffffffffffffffffffff16815260200190815260200160002060060160008360ff1660ff16815260200190815260200160002060040160008154809291906001019190505550600560009054906101000a900473ffffffffffffffffffffffffffffffffffffffff1673ffffffffffffffffffffffffffffffffffffffff168373ffffffffffffffffffffffffffffffffffffffff1614614d90576000614cef848461208c565b90508473ffffffffffffffffffffffffffffffffffffffff168173ffffffffffffffffffffffffffffffffffffffff168573ffffffffffffffffffffffffffffffffffffffff167fa00c953eff38ec1b71e7fe060b2ab8df0bbe5354319fbdde4fbdafd6324386a6600287604051808360ff1681526020018260ff1660ff1681526020019250505060405180910390a4614d8a848285612c61565b50614e71565b8373ffffffffffffffffffffffffffffffffffffffff16600073ffffffffffffffffffffffffffffffffffffffff16600560009054906101000a900473ffffffffffffffffffffffffffffffffffffffff1673ffffffffffffffffffffffffffffffffffffffff167fa00c953eff38ec1b71e7fe060b2ab8df0bbe5354319fbdde4fbdafd6324386a6600286604051808360ff1681526020018260ff1660ff1681526020019250505060405180910390a4614e70600560009054906101000a900473ffffffffffffffffffffffffffffffffffffffff168560028561431c565b5b505b505050565b80615479576000808060008673ffffffffffffffffffffffffffffffffffffffff1673ffffffffffffffffffffffffffffffffffffffff16815260200190815260200160002060060160008560ff1660ff168152602001908152602001600020600101600081548110614ee757fe5b9060005260206000200160009054906101000a900473ffffffffffffffffffffffffffffffffffffffff1673ffffffffffffffffffffffffffffffffffffffff1673ffffffffffffffffffffffffffffffffffffffff16815260200190815260200160002060060160008360ff1660ff1681526020019081526020016000206001018490806001815401808255809150509060018203906000526020600020016000909192909190916101000a81548173ffffffffffffffffffffffffffffffffffffffff021916908373ffffffffffffffffffffffffffffffffffffffff160217905550506000808473ffffffffffffffffffffffffffffffffffffffff1673ffffffffffffffffffffffffffffffffffffffff16815260200190815260200160002060060160008360ff1660ff16815260200190815260200160002060010160008154811061503457fe5b9060005260206000200160009054906101000a900473ffffffffffffffffffffffffffffffffffffffff1673ffffffffffffffffffffffffffffffffffffffff168473ffffffffffffffffffffffffffffffffffffffff167f68062c5925c4317adf3a7095478d28b33fd8b41458bc7620b61bc46bf1b24d826002856000808060008b73ffffffffffffffffffffffffffffffffffffffff1673ffffffffffffffffffffffffffffffffffffffff16815260200190815260200160002060060160008a60ff1660ff16815260200190815260200160002060010160008154811061511a57fe5b9060005260206000200160009054906101000a900473ffffffffffffffffffffffffffffffffffffffff1673ffffffffffffffffffffffffffffffffffffffff1673ffffffffffffffffffffffffffffffffffffffff16815260200190815260200160002060060160008860ff1660ff16815260200190815260200160002060010180549050604051808460ff1681526020018360ff1660ff1681526020018260ff1660ff168152602001935050505060405180910390a38273ffffffffffffffffffffffffffffffffffffffff168473ffffffffffffffffffffffffffffffffffffffff167f68062c5925c4317adf3a7095478d28b33fd8b41458bc7620b61bc46bf1b24d826002856000808060008b73ffffffffffffffffffffffffffffffffffffffff1673ffffffffffffffffffffffffffffffffffffffff16815260200190815260200160002060060160008a60ff1660ff16815260200190815260200160002060010160008154811061528e57fe5b9060005260206000200160009054906101000a900473ffffffffffffffffffffffffffffffffffffffff1673ffffffffffffffffffffffffffffffffffffffff1673ffffffffffffffffffffffffffffffffffffffff16815260200190815260200160002060060160008860ff1660ff16815260200190815260200160002060010180549050600201604051808460ff1681526020018360ff1660ff1681526020018260ff1660ff168152602001935050505060405180910390a36000808473ffffffffffffffffffffffffffffffffffffffff1673ffffffffffffffffffffffffffffffffffffffff16815260200190815260200160002060060160008360ff1660ff1681526020019081526020016000206001016000815481106153b057fe5b9060005260206000200160009054906101000a900473ffffffffffffffffffffffffffffffffffffffff166000808673ffffffffffffffffffffffffffffffffffffffff1673ffffffffffffffffffffffffffffffffffffffff16815260200190815260200160002060060160008460ff1660ff16815260200190815260200160002060000160006101000a81548173ffffffffffffffffffffffffffffffffffffffff021916908373ffffffffffffffffffffffffffffffffffffffff160217905550615a71565b6000808060008673ffffffffffffffffffffffffffffffffffffffff1673ffffffffffffffffffffffffffffffffffffffff16815260200190815260200160002060060160008560ff1660ff1681526020019081526020016000206001016001815481106154e357fe5b9060005260206000200160009054906101000a900473ffffffffffffffffffffffffffffffffffffffff1673ffffffffffffffffffffffffffffffffffffffff1673ffffffffffffffffffffffffffffffffffffffff16815260200190815260200160002060060160008360ff1660ff1681526020019081526020016000206001018490806001815401808255809150509060018203906000526020600020016000909192909190916101000a81548173ffffffffffffffffffffffffffffffffffffffff021916908373ffffffffffffffffffffffffffffffffffffffff160217905550506000808473ffffffffffffffffffffffffffffffffffffffff1673ffffffffffffffffffffffffffffffffffffffff16815260200190815260200160002060060160008360ff1660ff16815260200190815260200160002060010160018154811061563057fe5b9060005260206000200160009054906101000a900473ffffffffffffffffffffffffffffffffffffffff1673ffffffffffffffffffffffffffffffffffffffff168473ffffffffffffffffffffffffffffffffffffffff167f68062c5925c4317adf3a7095478d28b33fd8b41458bc7620b61bc46bf1b24d826002856000808060008b73ffffffffffffffffffffffffffffffffffffffff1673ffffffffffffffffffffffffffffffffffffffff16815260200190815260200160002060060160008a60ff1660ff16815260200190815260200160002060010160018154811061571657fe5b9060005260206000200160009054906101000a900473ffffffffffffffffffffffffffffffffffffffff1673ffffffffffffffffffffffffffffffffffffffff1673ffffffffffffffffffffffffffffffffffffffff16815260200190815260200160002060060160008860ff1660ff16815260200190815260200160002060010180549050604051808460ff1681526020018360ff1660ff1681526020018260ff1660ff168152602001935050505060405180910390a38273ffffffffffffffffffffffffffffffffffffffff168473ffffffffffffffffffffffffffffffffffffffff167f68062c5925c4317adf3a7095478d28b33fd8b41458bc7620b61bc46bf1b24d826002856000808060008b73ffffffffffffffffffffffffffffffffffffffff1673ffffffffffffffffffffffffffffffffffffffff16815260200190815260200160002060060160008a60ff1660ff16815260200190815260200160002060010160018154811061588a57fe5b9060005260206000200160009054906101000a900473ffffffffffffffffffffffffffffffffffffffff1673ffffffffffffffffffffffffffffffffffffffff1673ffffffffffffffffffffffffffffffffffffffff16815260200190815260200160002060060160008860ff1660ff16815260200190815260200160002060010180549050600401604051808460ff1681526020018360ff1660ff1681526020018260ff1660ff168152602001935050505060405180910390a36000808473ffffffffffffffffffffffffffffffffffffffff1673ffffffffffffffffffffffffffffffffffffffff16815260200190815260200160002060060160008360ff1660ff1681526020019081526020016000206001016001815481106159ac57fe5b9060005260206000200160009054906101000a900473ffffffffffffffffffffffffffffffffffffffff166000808673ffffffffffffffffffffffffffffffffffffffff1673ffffffffffffffffffffffffffffffffffffffff16815260200190815260200160002060060160008460ff1660ff16815260200190815260200160002060000160006101000a81548173ffffffffffffffffffffffffffffffffffffffff021916908373ffffffffffffffffffffffffffffffffffffffff1602179055505b50505050565b6000806000869050600060018660ff161415615c18575b600115615c13576000808373ffffffffffffffffffffffffffffffffffffffff1673ffffffffffffffffffffffffffffffffffffffff16815260200190815260200160002060050160008660ff1660ff16815260200190815260200160002060020160009054906101000a900460ff1615615c01578673ffffffffffffffffffffffffffffffffffffffff168273ffffffffffffffffffffffffffffffffffffffff167ffc0cb63f8dbd6b20ceb84a3c5358a41576a1479e6ecd040b4b985525dc09a709600188604051808360ff1681526020018260ff1660ff1681526020019250505060405180910390a3600190506000808373ffffffffffffffffffffffffffffffffffffffff1673ffffffffffffffffffffffffffffffffffffffff16815260200190815260200160002060050160008660ff1660ff16815260200190815260200160002060000160009054906101000a900473ffffffffffffffffffffffffffffffffffffffff169150615c0e565b8181935093505050615da2565b615a8e565b615d9f565b5b600115615d9e576000808373ffffffffffffffffffffffffffffffffffffffff1673ffffffffffffffffffffffffffffffffffffffff16815260200190815260200160002060060160008660ff1660ff16815260200190815260200160002060030160009054906101000a900460ff1615615d8c578673ffffffffffffffffffffffffffffffffffffffff168273ffffffffffffffffffffffffffffffffffffffff167ffc0cb63f8dbd6b20ceb84a3c5358a41576a1479e6ecd040b4b985525dc09a709600288604051808360ff1681526020018260ff1660ff1681526020019250505060405180910390a3600190506000808373ffffffffffffffffffffffffffffffffffffffff1673ffffffffffffffffffffffffffffffffffffffff16815260200190815260200160002060060160008660ff1660ff16815260200190815260200160002060000160009054906101000a900473ffffffffffffffffffffffffffffffffffffffff169150615d99565b8181935093505050615da2565b615c19565b5b50505b94509492505050565b604051806060016040528060008152602001600073ffffffffffffffffffffffffffffffffffffffff168152602001600081525090565b828054828255906000526020600020908101928215615e5b579160200282015b82811115615e5a5782518260006101000a81548173ffffffffffffffffffffffffffffffffffffffff021916908373ffffffffffffffffffffffffffffffffffffffff16021790555091602001919060010190615e02565b5b509050615e689190615e6c565b5090565b615eac91905b80821115615ea857600081816101000a81549073ffffffffffffffffffffffffffffffffffffffff021916905550600101615e72565b5090565b9056fe75736572206973206e6f74206578697374732e2052656769737465722066697273742ea265627a7a723158201870fc7ea39d9eb207c60af8d10e8f460cb074bc749f08a454d4e4f64d6ed9e464736f6c63430005100032",
  "source": "pragma solidity >=0.4.23 <0.7.0;\n\ncontract SmartContractDondi {\n    \n    // user structure\n    struct User {\n        uint id;\n        address referrer;\n        uint partnersCount;\n        \n        mapping(uint8 => bool) activeX3Levels;\n        mapping(uint8 => bool) activeX6Levels;\n        \n        mapping(uint8 => X3) x3Matrix;\n        mapping(uint8 => X6) x6Matrix;\n    }\n\n    // x3 matrix\n    struct X3 {\n        address currentReferrer;\n        address[] referrals;\n        bool blocked;\n        uint reinvestCount;\n    }\n    \n    // x6 matrix\n    struct X6 {\n        address currentReferrer;\n        address[] firstLevelReferrals;\n        address[] secondLevelReferrals;\n        bool blocked;\n        uint reinvestCount;\n\n        address closedPart;\n    }\n\n    // slot count\n    uint8 public constant LAST_LEVEL = 12;\n    \n    mapping(address => User) public users;\n    mapping(uint => address) public idToAddress;\n    mapping(uint => address) public userIds;\n    mapping(address => uint) public balances; \n\n    uint public lastUserId = 2;\n    address public owner;\n    \n    mapping(uint8 => uint) public levelPrice;\n    \n    // signals\n    event Registration(address indexed user, address indexed referrer, uint indexed userId, uint referrerId);\n    event Reinvest(address indexed user, address indexed currentReferrer, address indexed caller, uint8 matrix, uint8 level);\n    event Upgrade(address indexed user, address indexed referrer, uint8 matrix, uint8 level);\n    event NewUserPlace(address indexed user, address indexed referrer, uint8 matrix, uint8 level, uint8 place);\n    event MissedEthReceive(address indexed receiver, address indexed from, uint8 matrix, uint8 level);\n    event SentExtraEthDividends(address indexed from, address indexed receiver, uint8 matrix, uint8 level);\n\n    // constructor of SmartContractDondi\n    constructor(address ownerAddress) public {\n        // initial price(ether) per each slot\n        levelPrice[1] = 0.025 ether;\n\n        for (uint8 i = 2; i <= LAST_LEVEL; i++) {\n            levelPrice[i] = levelPrice[i-1] * 2;\n        }\n        \n        owner = ownerAddress;\n        \n        User memory user = User({\n            id: 1,\n            referrer: address(0),\n            partnersCount: uint(0)\n        });\n        \n        users[ownerAddress] = user;\n        idToAddress[1] = ownerAddress;\n        \n        for (uint8 i = 1; i <= LAST_LEVEL; i++) {\n            users[ownerAddress].activeX3Levels[i] = true;\n            users[ownerAddress].activeX6Levels[i] = true;\n        }\n        \n        userIds[1] = ownerAddress;\n    }\n\n    // external payable functions\n    function() external payable {\n        if(msg.data.length == 0) {\n            return registration(msg.sender, owner);\n        }\n        \n        registration(msg.sender, bytesToAddress(msg.data));\n    }\n\n    // external payable functions\n    function registrationExt(address referrerAddress) external payable {\n        registration(msg.sender, referrerAddress);\n    }\n    \n    // external payable functions\n    function buyNewLevel(uint8 matrix, uint8 level) external payable {\n        require(isUserExists(msg.sender), \"user is not exists. Register first.\");\n        require(matrix == 1 || matrix == 2, \"invalid matrix\");\n        require(msg.value == levelPrice[level], \"invalid price\");\n        require(level > 1 && level <= LAST_LEVEL, \"invalid level\");\n\n        if (matrix == 1) {\n            require(!users[msg.sender].activeX3Levels[level], \"level already activated\");\n\n            if (users[msg.sender].x3Matrix[level-1].blocked) {\n                users[msg.sender].x3Matrix[level-1].blocked = false;\n            }\n    \n            address freeX3Referrer = findFreeX3Referrer(msg.sender, level);\n            users[msg.sender].x3Matrix[level].currentReferrer = freeX3Referrer;\n            users[msg.sender].activeX3Levels[level] = true;\n            updateX3Referrer(msg.sender, freeX3Referrer, level);\n            \n            emit Upgrade(msg.sender, freeX3Referrer, 1, level);\n\n        } else {\n            require(!users[msg.sender].activeX6Levels[level], \"level already activated\"); \n\n            if (users[msg.sender].x6Matrix[level-1].blocked) {\n                users[msg.sender].x6Matrix[level-1].blocked = false;\n            }\n\n            address freeX6Referrer = findFreeX6Referrer(msg.sender, level);\n            \n            users[msg.sender].activeX6Levels[level] = true;\n            updateX6Referrer(msg.sender, freeX6Referrer, level);\n            \n            emit Upgrade(msg.sender, freeX6Referrer, 2, level);\n        }\n    }\n\n    // pure functions\n    function bytesToAddress(bytes memory bys) private pure returns (address addr) {\n        assembly {\n            addr := mload(add(bys, 20))\n        }\n    }\n\n    // private functions - find Ethereum Receiver\n    function findEthReceiver(address userAddress, address _from, uint8 matrix, uint8 level) private returns(address, bool) {\n        address receiver = userAddress;\n        bool isExtraDividends;\n        if (matrix == 1) {\n            while (true) {\n                if (users[receiver].x3Matrix[level].blocked) {\n                    emit MissedEthReceive(receiver, _from, 1, level);\n                    isExtraDividends = true;\n                    receiver = users[receiver].x3Matrix[level].currentReferrer;\n                } else {\n                    return (receiver, isExtraDividends);\n                }\n            }\n        } else {\n            while (true) {\n                if (users[receiver].x6Matrix[level].blocked) {\n                    emit MissedEthReceive(receiver, _from, 2, level);\n                    isExtraDividends = true;\n                    receiver = users[receiver].x6Matrix[level].currentReferrer;\n                } else {\n                    return (receiver, isExtraDividends);\n                }\n            }\n        }\n    }\n\n    // private functions - send Ethereum Dividends\n    function sendETHDividends(address userAddress, address _from, uint8 matrix, uint8 level) private {\n        (address receiver, bool isExtraDividends) = findEthReceiver(userAddress, _from, matrix, level);\n\n        if (!address(uint160(receiver)).send(levelPrice[level])) {\n            return address(uint160(receiver)).transfer(address(this).balance);\n        }\n        \n        if (isExtraDividends) {\n            emit SentExtraEthDividends(_from, receiver, matrix, level);\n        }\n    }\n\n    // user register function\n    function registration(address userAddress, address referrerAddress) private {\n        require(msg.value == 0.05 ether, \"registration cost 0.05\");\n        require(!isUserExists(userAddress), \"user exists\");\n        require(isUserExists(referrerAddress), \"referrer not exists\");\n        \n        uint32 size;\n        assembly {\n            size := extcodesize(userAddress)\n        }\n        require(size == 0, \"cannot be a contract\");\n        \n        User memory user = User({\n            id: lastUserId,\n            referrer: referrerAddress,\n            partnersCount: 0\n        });\n        \n        users[userAddress] = user;\n        idToAddress[lastUserId] = userAddress;\n        \n        users[userAddress].referrer = referrerAddress;\n        \n        users[userAddress].activeX3Levels[1] = true; \n        users[userAddress].activeX6Levels[1] = true;\n        \n        \n        userIds[lastUserId] = userAddress;\n        lastUserId++;\n        \n        users[referrerAddress].partnersCount++;\n\n        address freeX3Referrer = findFreeX3Referrer(userAddress, 1);\n        users[userAddress].x3Matrix[1].currentReferrer = freeX3Referrer;\n        updateX3Referrer(userAddress, freeX3Referrer, 1);\n\n        updateX6Referrer(userAddress, findFreeX6Referrer(userAddress, 1), 1);\n        \n        emit Registration(userAddress, referrerAddress, users[userAddress].id, users[referrerAddress].id);\n    }\n\n    function updateX3Referrer(address userAddress, address referrerAddress, uint8 level) private {\n        users[referrerAddress].x3Matrix[level].referrals.push(userAddress);\n\n        if (users[referrerAddress].x3Matrix[level].referrals.length < 3) {\n            emit NewUserPlace(userAddress, referrerAddress, 1, level, uint8(users[referrerAddress].x3Matrix[level].referrals.length));\n            return sendETHDividends(referrerAddress, userAddress, 1, level);\n        }\n        \n        emit NewUserPlace(userAddress, referrerAddress, 1, level, 3);\n        //close matrix\n        users[referrerAddress].x3Matrix[level].referrals = new address[](0);\n        if (!users[referrerAddress].activeX3Levels[level+1] && level != LAST_LEVEL) {\n            users[referrerAddress].x3Matrix[level].blocked = true;\n        }\n\n        //create new one by recursion\n        if (referrerAddress != owner) {\n            //check referrer active level\n            address freeReferrerAddress = findFreeX3Referrer(referrerAddress, level);\n            if (users[referrerAddress].x3Matrix[level].currentReferrer != freeReferrerAddress) {\n                users[referrerAddress].x3Matrix[level].currentReferrer = freeReferrerAddress;\n            }\n            \n            users[referrerAddress].x3Matrix[level].reinvestCount++;\n            emit Reinvest(referrerAddress, freeReferrerAddress, userAddress, 1, level);\n            updateX3Referrer(referrerAddress, freeReferrerAddress, level);\n        } else {\n            sendETHDividends(owner, userAddress, 1, level);\n            users[owner].x3Matrix[level].reinvestCount++;\n            emit Reinvest(owner, address(0), userAddress, 1, level);\n        }\n    }\n\n    function updateX6Referrer(address userAddress, address referrerAddress, uint8 level) private {\n        require(users[referrerAddress].activeX6Levels[level], \"500. Referrer level is inactive\");\n        \n        if (users[referrerAddress].x6Matrix[level].firstLevelReferrals.length < 2) {\n            users[referrerAddress].x6Matrix[level].firstLevelReferrals.push(userAddress);\n            emit NewUserPlace(userAddress, referrerAddress, 2, level, uint8(users[referrerAddress].x6Matrix[level].firstLevelReferrals.length));\n            \n            //set current level\n            users[userAddress].x6Matrix[level].currentReferrer = referrerAddress;\n\n            if (referrerAddress == owner) {\n                return sendETHDividends(referrerAddress, userAddress, 2, level);\n            }\n            \n            address ref = users[referrerAddress].x6Matrix[level].currentReferrer;            \n            users[ref].x6Matrix[level].secondLevelReferrals.push(userAddress); \n            \n            uint len = users[ref].x6Matrix[level].firstLevelReferrals.length;\n            \n            if ((len == 2) && \n                (users[ref].x6Matrix[level].firstLevelReferrals[0] == referrerAddress) &&\n                (users[ref].x6Matrix[level].firstLevelReferrals[1] == referrerAddress)) {\n                if (users[referrerAddress].x6Matrix[level].firstLevelReferrals.length == 1) {\n                    emit NewUserPlace(userAddress, ref, 2, level, 5);\n                } else {\n                    emit NewUserPlace(userAddress, ref, 2, level, 6);\n                }\n            }  else if ((len == 1 || len == 2) &&\n                    users[ref].x6Matrix[level].firstLevelReferrals[0] == referrerAddress) {\n                if (users[referrerAddress].x6Matrix[level].firstLevelReferrals.length == 1) {\n                    emit NewUserPlace(userAddress, ref, 2, level, 3);\n                } else {\n                    emit NewUserPlace(userAddress, ref, 2, level, 4);\n                }\n            } else if (len == 2 && users[ref].x6Matrix[level].firstLevelReferrals[1] == referrerAddress) {\n                if (users[referrerAddress].x6Matrix[level].firstLevelReferrals.length == 1) {\n                    emit NewUserPlace(userAddress, ref, 2, level, 5);\n                } else {\n                    emit NewUserPlace(userAddress, ref, 2, level, 6);\n                }\n            }\n\n            return updateX6ReferrerSecondLevel(userAddress, ref, level);\n        }\n        \n        users[referrerAddress].x6Matrix[level].secondLevelReferrals.push(userAddress);\n\n        if (users[referrerAddress].x6Matrix[level].closedPart != address(0)) {\n            if ((users[referrerAddress].x6Matrix[level].firstLevelReferrals[0] == \n                users[referrerAddress].x6Matrix[level].firstLevelReferrals[1]) &&\n                (users[referrerAddress].x6Matrix[level].firstLevelReferrals[0] ==\n                users[referrerAddress].x6Matrix[level].closedPart)) {\n\n                updateX6(userAddress, referrerAddress, level, true);\n                return updateX6ReferrerSecondLevel(userAddress, referrerAddress, level);\n            } else if (users[referrerAddress].x6Matrix[level].firstLevelReferrals[0] == \n                users[referrerAddress].x6Matrix[level].closedPart) {\n                updateX6(userAddress, referrerAddress, level, true);\n                return updateX6ReferrerSecondLevel(userAddress, referrerAddress, level);\n            } else {\n                updateX6(userAddress, referrerAddress, level, false);\n                return updateX6ReferrerSecondLevel(userAddress, referrerAddress, level);\n            }\n        }\n\n        if (users[referrerAddress].x6Matrix[level].firstLevelReferrals[1] == userAddress) {\n            updateX6(userAddress, referrerAddress, level, false);\n            return updateX6ReferrerSecondLevel(userAddress, referrerAddress, level);\n        } else if (users[referrerAddress].x6Matrix[level].firstLevelReferrals[0] == userAddress) {\n            updateX6(userAddress, referrerAddress, level, true);\n            return updateX6ReferrerSecondLevel(userAddress, referrerAddress, level);\n        }\n        \n        if (users[users[referrerAddress].x6Matrix[level].firstLevelReferrals[0]].x6Matrix[level].firstLevelReferrals.length <= \n            users[users[referrerAddress].x6Matrix[level].firstLevelReferrals[1]].x6Matrix[level].firstLevelReferrals.length) {\n            updateX6(userAddress, referrerAddress, level, false);\n        } else {\n            updateX6(userAddress, referrerAddress, level, true);\n        }\n        \n        updateX6ReferrerSecondLevel(userAddress, referrerAddress, level);\n    }\n\n    function updateX6(address userAddress, address referrerAddress, uint8 level, bool x2) private {\n        if (!x2) {\n            users[users[referrerAddress].x6Matrix[level].firstLevelReferrals[0]].x6Matrix[level].firstLevelReferrals.push(userAddress);\n            emit NewUserPlace(userAddress, users[referrerAddress].x6Matrix[level].firstLevelReferrals[0], 2, level, uint8(users[users[referrerAddress].x6Matrix[level].firstLevelReferrals[0]].x6Matrix[level].firstLevelReferrals.length));\n            emit NewUserPlace(userAddress, referrerAddress, 2, level, 2 + uint8(users[users[referrerAddress].x6Matrix[level].firstLevelReferrals[0]].x6Matrix[level].firstLevelReferrals.length));\n            //set current level\n            users[userAddress].x6Matrix[level].currentReferrer = users[referrerAddress].x6Matrix[level].firstLevelReferrals[0];\n        } else {\n            users[users[referrerAddress].x6Matrix[level].firstLevelReferrals[1]].x6Matrix[level].firstLevelReferrals.push(userAddress);\n            emit NewUserPlace(userAddress, users[referrerAddress].x6Matrix[level].firstLevelReferrals[1], 2, level, uint8(users[users[referrerAddress].x6Matrix[level].firstLevelReferrals[1]].x6Matrix[level].firstLevelReferrals.length));\n            emit NewUserPlace(userAddress, referrerAddress, 2, level, 4 + uint8(users[users[referrerAddress].x6Matrix[level].firstLevelReferrals[1]].x6Matrix[level].firstLevelReferrals.length));\n            //set current level\n            users[userAddress].x6Matrix[level].currentReferrer = users[referrerAddress].x6Matrix[level].firstLevelReferrals[1];\n        }\n    }\n    \n    function updateX6ReferrerSecondLevel(address userAddress, address referrerAddress, uint8 level) private {\n        if (users[referrerAddress].x6Matrix[level].secondLevelReferrals.length < 4) {\n            return sendETHDividends(referrerAddress, userAddress, 2, level);\n        }\n        \n        address[] memory x6 = users[users[referrerAddress].x6Matrix[level].currentReferrer].x6Matrix[level].firstLevelReferrals;\n        \n        if (x6.length == 2) {\n            if (x6[0] == referrerAddress ||\n                x6[1] == referrerAddress) {\n                users[users[referrerAddress].x6Matrix[level].currentReferrer].x6Matrix[level].closedPart = referrerAddress;\n            } else if (x6.length == 1) {\n                if (x6[0] == referrerAddress) {\n                    users[users[referrerAddress].x6Matrix[level].currentReferrer].x6Matrix[level].closedPart = referrerAddress;\n                }\n            }\n        }\n        \n        users[referrerAddress].x6Matrix[level].firstLevelReferrals = new address[](0);\n        users[referrerAddress].x6Matrix[level].secondLevelReferrals = new address[](0);\n        users[referrerAddress].x6Matrix[level].closedPart = address(0);\n\n        if (!users[referrerAddress].activeX6Levels[level+1] && level != LAST_LEVEL) {\n            users[referrerAddress].x6Matrix[level].blocked = true;\n        }\n\n        users[referrerAddress].x6Matrix[level].reinvestCount++;\n        \n        if (referrerAddress != owner) {\n            address freeReferrerAddress = findFreeX6Referrer(referrerAddress, level);\n\n            emit Reinvest(referrerAddress, freeReferrerAddress, userAddress, 2, level);\n            updateX6Referrer(referrerAddress, freeReferrerAddress, level);\n        } else {\n            emit Reinvest(owner, address(0), userAddress, 2, level);\n            sendETHDividends(owner, userAddress, 2, level);\n        }\n    }\n\n    // public views - check user\n    function isUserExists(address user) public view returns (bool) {\n        return (users[user].id != 0);\n    }\n\n    // public views - get user matrix\n    function usersX3Matrix(address userAddress, uint8 level) public view returns(address, address[] memory, bool) {\n        return (users[userAddress].x3Matrix[level].currentReferrer,\n                users[userAddress].x3Matrix[level].referrals,\n                users[userAddress].x3Matrix[level].blocked);\n    }\n\n    function usersX6Matrix(address userAddress, uint8 level) public view returns(address, address[] memory, address[] memory, bool, address) {\n        return (users[userAddress].x6Matrix[level].currentReferrer,\n                users[userAddress].x6Matrix[level].firstLevelReferrals,\n                users[userAddress].x6Matrix[level].secondLevelReferrals,\n                users[userAddress].x6Matrix[level].blocked,\n                users[userAddress].x6Matrix[level].closedPart);\n    }\n\n    function usersActiveX3Levels(address userAddress, uint8 level) public view returns(bool) {\n        return users[userAddress].activeX3Levels[level];\n    }\n\n    function usersActiveX6Levels(address userAddress, uint8 level) public view returns(bool) {\n        return users[userAddress].activeX6Levels[level];\n    }\n\n    function findFreeX3Referrer(address userAddress, uint8 level) public view returns(address) {\n        while (true) {\n            if (users[users[userAddress].referrer].activeX3Levels[level]) {\n                return users[userAddress].referrer;\n            }\n            \n            userAddress = users[userAddress].referrer;\n        }\n    }\n    \n    function findFreeX6Referrer(address userAddress, uint8 level) public view returns(address) {\n        while (true) {\n            if (users[users[userAddress].referrer].activeX6Levels[level]) {\n                return users[userAddress].referrer;\n            }\n            \n            userAddress = users[userAddress].referrer;\n        }\n    }\n}",
  "sourcePath": "/home/dev/workspace/Blockchain/forsage-api/contracts/SmartContractDondi.sol",
  "compiler": {
    "name": "solc",
    "version": "0.5.16+commit.9c3226ce.Emscripten.clang"
  },
  "schemaVersion": "3.2.1",
  "updatedAt": "2020-07-15T20:46:30.388Z",
  "devdoc": {
    "methods": {}
  },
  "userdoc": {
    "methods": {}
  }
}